{
  "contractName": "Token",
  "abi": [
    {
      "constant": true,
      "inputs": [],
      "name": "totalSuply",
      "outputs": [
        {
          "name": "",
          "type": "uint256"
        }
      ],
      "payable": false,
      "stateMutability": "view",
      "type": "function"
    },
    {
      "inputs": [
        {
          "name": "_initialSuply",
          "type": "uint256"
        }
      ],
      "payable": false,
      "stateMutability": "nonpayable",
      "type": "constructor"
    }
  ],
  "bytecode": "0x608060405234801561001057600080fd5b506040516020806100ef8339810180604052602081101561003057600080fd5b810190808051906020019092919050505080600081905550506098806100576000396000f3fe6080604052600436106039576000357c010000000000000000000000000000000000000000000000000000000090048063a2a9679914603e575b600080fd5b348015604957600080fd5b5060506066565b6040518082815260200191505060405180910390f35b6000548156fea165627a7a72305820157b244ecdcad94e992d65a44f5bad6e9208ca14c6a0882d5f453b147c396a3f0029",
  "source": "pragma solidity ^0.5.0;\n\ncontract Token{\n\n\tuint256 public totalSuply;\n\tconstructor(uint256 _initialSuply) public {\n\t\ttotalSuply = _initialSuply;\n\t}\n}",
  "sourcePath": "/home/rackham/dev/etherium/token_sale/contracts/Token.sol",
  "compiler": {
    "name": "solc",
    "version": "0.5.1+commit.c8a2cb62.Emscripten.clang"
  },
  "schemaVersion": "3.2.2",
  "updatedAt": "2020-08-16T16:44:55.924Z",
  "networkType": "ethereum",
  "devdoc": {
    "methods": {}
  },
  "userdoc": {
    "methods": {}
  }
}