{
  "contractName": "Token",
  "abi": [
    {
      "constant": true,
      "inputs": [],
      "name": "totalSuply",
      "outputs": [
        {
          "name": "",
          "type": "uint256"
        }
      ],
      "payable": false,
      "stateMutability": "view",
      "type": "function"
    },
    {
      "inputs": [],
      "payable": false,
      "stateMutability": "nonpayable",
      "type": "constructor"
    }
  ],
  "bytecode": "0x6080604052348015600f57600080fd5b50620f42406000819055506098806100286000396000f3fe6080604052600436106039576000357c010000000000000000000000000000000000000000000000000000000090048063a2a9679914603e575b600080fd5b348015604957600080fd5b5060506066565b6040518082815260200191505060405180910390f35b6000548156fea165627a7a7230582062bffc5ce5a7e711022cd46ebd0ada4871bc6bcd6fb43cc9aaf659bcdd0a07010029",
  "source": "pragma solidity ^0.5.0;\n\ncontract Token{\n\n\tuint256 public totalSuply;\n\tconstructor() public {\n\t\ttotalSuply = 1000000;\n\t}\n}",
  "sourcePath": "/home/rackham/dev/etherium/token_sale/contracts/Token.sol",
  "compiler": {
    "name": "solc",
    "version": "0.5.1+commit.c8a2cb62.Emscripten.clang"
  },
  "schemaVersion": "3.2.2",
  "updatedAt": "2020-08-16T16:19:51.573Z",
  "networkType": "ethereum",
  "devdoc": {
    "methods": {}
  },
  "userdoc": {
    "methods": {}
  }
}